{
  "_format": "hh-sol-artifact-1",
  "contractName": "BuyMeARedacted",
  "sourceName": "contracts/BuyMeARedacted.sol",
  "abi": [
    {
      "inputs": [],
      "stateMutability": "nonpayable",
      "type": "constructor"
    },
    {
      "anonymous": false,
      "inputs": [
        {
          "indexed": true,
          "internalType": "address",
          "name": "from",
          "type": "address"
        },
        {
          "indexed": false,
          "internalType": "uint256",
          "name": "timestamp",
          "type": "uint256"
        },
        {
          "indexed": false,
          "internalType": "string",
          "name": "name",
          "type": "string"
        },
        {
          "indexed": false,
          "internalType": "string",
          "name": "message",
          "type": "string"
        },
        {
          "indexed": false,
          "internalType": "string",
          "name": "item",
          "type": "string"
        }
      ],
      "name": "NewMemo",
      "type": "event"
    },
    {
      "inputs": [
        {
          "internalType": "string",
          "name": "_name",
          "type": "string"
        },
        {
          "internalType": "string",
          "name": "_message",
          "type": "string"
        },
        {
          "internalType": "string",
          "name": "_item",
          "type": "string"
        }
      ],
      "name": "buyRedacted",
      "outputs": [],
      "stateMutability": "payable",
      "type": "function"
    },
    {
      "inputs": [],
      "name": "getMemos",
      "outputs": [
        {
          "components": [
            {
              "internalType": "address",
              "name": "from",
              "type": "address"
            },
            {
              "internalType": "uint256",
              "name": "timestamp",
              "type": "uint256"
            },
            {
              "internalType": "string",
              "name": "name",
              "type": "string"
            },
            {
              "internalType": "string",
              "name": "message",
              "type": "string"
            },
            {
              "internalType": "string",
              "name": "item",
              "type": "string"
            }
          ],
          "internalType": "struct BuyMeARedacted.Memo[]",
          "name": "",
          "type": "tuple[]"
        }
      ],
      "stateMutability": "view",
      "type": "function"
    },
    {
      "inputs": [],
      "name": "withdrawTips",
      "outputs": [],
      "stateMutability": "nonpayable",
      "type": "function"
    }
  ],
  "bytecode": "0x608060405234801561001057600080fd5b50336000806101000a81548173ffffffffffffffffffffffffffffffffffffffff021916908373ffffffffffffffffffffffffffffffffffffffff160217905550610b92806100606000396000f3fe6080604052600436106100345760003560e01c80633aaa74b214610039578063865c517214610050578063da6bf2ce1461007b575b600080fd5b34801561004557600080fd5b5061004e610097565b005b34801561005c57600080fd5b506100656100f7565b604051610072919061088b565b60405180910390f35b61009560048036038101906100909190610625565b61036c565b005b60008054906101000a900473ffffffffffffffffffffffffffffffffffffffff1673ffffffffffffffffffffffffffffffffffffffff166108fc479081150290604051600060405180830381858888f193505050506100f557600080fd5b565b60606001805480602002602001604051908101604052809291908181526020016000905b8282101561036357838290600052602060002090600502016040518060a00160405290816000820160009054906101000a900473ffffffffffffffffffffffffffffffffffffffff1673ffffffffffffffffffffffffffffffffffffffff1673ffffffffffffffffffffffffffffffffffffffff168152602001600182015481526020016002820180546101ae90610a61565b80601f01602080910402602001604051908101604052809291908181526020018280546101da90610a61565b80156102275780601f106101fc57610100808354040283529160200191610227565b820191906000526020600020905b81548152906001019060200180831161020a57829003601f168201915b5050505050815260200160038201805461024090610a61565b80601f016020809104026020016040519081016040528092919081815260200182805461026c90610a61565b80156102b95780601f1061028e576101008083540402835291602001916102b9565b820191906000526020600020905b81548152906001019060200180831161029c57829003601f168201915b505050505081526020016004820180546102d290610a61565b80601f01602080910402602001604051908101604052809291908181526020018280546102fe90610a61565b801561034b5780601f106103205761010080835404028352916020019161034b565b820191906000526020600020905b81548152906001019060200180831161032e57829003601f168201915b5050505050815250508152602001906001019061011b565b50505050905090565b600034116103af576040517f08c379a00000000000000000000000000000000000000000000000000000000081526004016103a6906108ad565b60405180910390fd5b60016040518060a001604052803373ffffffffffffffffffffffffffffffffffffffff16815260200142815260200185815260200184815260200183815250908060018154018082558091505060019003906000526020600020906005020160009091909190915060008201518160000160006101000a81548173ffffffffffffffffffffffffffffffffffffffff021916908373ffffffffffffffffffffffffffffffffffffffff16021790555060208201518160010155604082015181600201908051906020019061048492919061051a565b5060608201518160030190805190602001906104a192919061051a565b5060808201518160040190805190602001906104be92919061051a565b5050503373ffffffffffffffffffffffffffffffffffffffff167f278e362bfd6af0951b595e6b22ce136796546ae06428ae7bd4eb4921eb991c624285858560405161050d94939291906108cd565b60405180910390a2505050565b82805461052690610a61565b90600052602060002090601f016020900481019282610548576000855561058f565b82601f1061056157805160ff191683800117855561058f565b8280016001018555821561058f579182015b8281111561058e578251825591602001919060010190610573565b5b50905061059c91906105a0565b5090565b5b808211156105b95760008160009055506001016105a1565b5090565b60006105d06105cb8461094c565b610927565b9050828152602081018484840111156105e857600080fd5b6105f3848285610a1f565b509392505050565b600082601f83011261060c57600080fd5b813561061c8482602086016105bd565b91505092915050565b60008060006060848603121561063a57600080fd5b600084013567ffffffffffffffff81111561065457600080fd5b610660868287016105fb565b935050602084013567ffffffffffffffff81111561067d57600080fd5b610689868287016105fb565b925050604084013567ffffffffffffffff8111156106a657600080fd5b6106b2868287016105fb565b9150509250925092565b60006106c883836107e9565b905092915050565b6106d9816109e3565b82525050565b60006106ea8261098d565b6106f481856109b0565b9350836020820285016107068561097d565b8060005b85811015610742578484038952815161072385826106bc565b945061072e836109a3565b925060208a0199505060018101905061070a565b50829750879550505050505092915050565b600061075f82610998565b61076981856109c1565b9350610779818560208601610a2e565b61078281610b22565b840191505092915050565b600061079882610998565b6107a281856109d2565b93506107b2818560208601610a2e565b6107bb81610b22565b840191505092915050565b60006107d3601c836109d2565b91506107de82610b33565b602082019050919050565b600060a08301600083015161080160008601826106d0565b506020830151610814602086018261086d565b506040830151848203604086015261082c8282610754565b915050606083015184820360608601526108468282610754565b915050608083015184820360808601526108608282610754565b9150508091505092915050565b61087681610a15565b82525050565b61088581610a15565b82525050565b600060208201905081810360008301526108a581846106df565b905092915050565b600060208201905081810360008301526108c6816107c6565b9050919050565b60006080820190506108e2600083018761087c565b81810360208301526108f4818661078d565b90508181036040830152610908818561078d565b9050818103606083015261091c818461078d565b905095945050505050565b6000610931610942565b905061093d8282610a93565b919050565b6000604051905090565b600067ffffffffffffffff82111561096757610966610af3565b5b61097082610b22565b9050602081019050919050565b6000819050602082019050919050565b600081519050919050565b600081519050919050565b6000602082019050919050565b600082825260208201905092915050565b600082825260208201905092915050565b600082825260208201905092915050565b60006109ee826109f5565b9050919050565b600073ffffffffffffffffffffffffffffffffffffffff82169050919050565b6000819050919050565b82818337600083830152505050565b60005b83811015610a4c578082015181840152602081019050610a31565b83811115610a5b576000848401525b50505050565b60006002820490506001821680610a7957607f821691505b60208210811415610a8d57610a8c610ac4565b5b50919050565b610a9c82610b22565b810181811067ffffffffffffffff82111715610abb57610aba610af3565b5b80604052505050565b7f4e487b7100000000000000000000000000000000000000000000000000000000600052602260045260246000fd5b7f4e487b7100000000000000000000000000000000000000000000000000000000600052604160045260246000fd5b6000601f19601f8301169050919050565b7f63616e27742062757920526564616374656420666f722066726565210000000060008201525056fea2646970667358221220153a0af42508592906c6e2dc3b6025a5689ec35369e63a59643d612eae75aed864736f6c63430008040033",
  "linkReferences": {},
  "deployedLinkReferences": {}
}